{
  "contractName": "Voyte",
  "abi": [
    {
      "inputs": [],
      "stateMutability": "nonpayable",
      "type": "constructor"
    },
    {
      "anonymous": false,
      "inputs": [
        {
          "indexed": true,
          "internalType": "address",
          "name": "user",
          "type": "address"
        },
        {
          "indexed": false,
          "internalType": "bool",
          "name": "status",
          "type": "bool"
        }
      ],
      "name": "Admin",
      "type": "event"
    },
    {
      "anonymous": false,
      "inputs": [
        {
          "indexed": true,
          "internalType": "address",
          "name": "user",
          "type": "address"
        },
        {
          "indexed": false,
          "internalType": "uint256",
          "name": "timestamp",
          "type": "uint256"
        }
      ],
      "name": "CreateProfile",
      "type": "event"
    },
    {
      "anonymous": false,
      "inputs": [
        {
          "components": [
            {
              "internalType": "bool",
              "name": "exist",
              "type": "bool"
            },
            {
              "internalType": "address",
              "name": "user",
              "type": "address"
            },
            {
              "internalType": "string",
              "name": "password",
              "type": "string"
            },
            {
              "internalType": "uint16",
              "name": "resetCode",
              "type": "uint16"
            }
          ],
          "indexed": false,
          "internalType": "struct Voyte.User",
          "name": "user",
          "type": "tuple"
        },
        {
          "indexed": false,
          "internalType": "uint256",
          "name": "time",
          "type": "uint256"
        }
      ],
      "name": "CreateUser",
      "type": "event"
    },
    {
      "anonymous": false,
      "inputs": [
        {
          "indexed": false,
          "internalType": "address",
          "name": "user",
          "type": "address"
        },
        {
          "indexed": false,
          "internalType": "uint256",
          "name": "timestamp",
          "type": "uint256"
        }
      ],
      "name": "DeleteFromUpdateAddressStatus",
      "type": "event"
    },
    {
      "anonymous": false,
      "inputs": [
        {
          "indexed": false,
          "internalType": "uint256",
          "name": "postId",
          "type": "uint256"
        }
      ],
      "name": "DeletePost",
      "type": "event"
    },
    {
      "anonymous": false,
      "inputs": [
        {
          "indexed": false,
          "internalType": "address",
          "name": "user",
          "type": "address"
        },
        {
          "indexed": false,
          "internalType": "uint256",
          "name": "timestamp",
          "type": "uint256"
        }
      ],
      "name": "DeleteProfile",
      "type": "event"
    },
    {
      "anonymous": false,
      "inputs": [
        {
          "indexed": false,
          "internalType": "uint256",
          "name": "_PostId",
          "type": "uint256"
        }
      ],
      "name": "NewAmountDonated",
      "type": "event"
    },
    {
      "anonymous": false,
      "inputs": [
        {
          "indexed": false,
          "internalType": "uint256",
          "name": "postId",
          "type": "uint256"
        }
      ],
      "name": "NewPost",
      "type": "event"
    },
    {
      "anonymous": false,
      "inputs": [
        {
          "indexed": false,
          "internalType": "address",
          "name": "user",
          "type": "address"
        },
        {
          "indexed": false,
          "internalType": "uint256",
          "name": "timestamp",
          "type": "uint256"
        }
      ],
      "name": "UpdateAddressStatus",
      "type": "event"
    },
    {
      "inputs": [
        {
          "internalType": "address",
          "name": "user",
          "type": "address"
        },
        {
          "internalType": "bool",
          "name": "status",
          "type": "bool"
        }
      ],
      "name": "addAdmin",
      "outputs": [],
      "stateMutability": "nonpayable",
      "type": "function"
    },
    {
      "inputs": [
        {
          "internalType": "uint256",
          "name": "_postId",
          "type": "uint256"
        },
        {
          "internalType": "address",
          "name": "_user",
          "type": "address"
        },
        {
          "internalType": "address",
          "name": "_affiliation",
          "type": "address"
        },
        {
          "internalType": "uint256",
          "name": "_minAmount",
          "type": "uint256"
        },
        {
          "internalType": "bytes32",
          "name": "_caption",
          "type": "bytes32"
        },
        {
          "internalType": "bytes32",
          "name": "_message",
          "type": "bytes32"
        },
        {
          "internalType": "bytes32",
          "name": "_mediaUrl",
          "type": "bytes32"
        }
      ],
      "name": "addPost",
      "outputs": [
        {
          "internalType": "bool",
          "name": "success",
          "type": "bool"
        }
      ],
      "stateMutability": "nonpayable",
      "type": "function"
    },
    {
      "inputs": [
        {
          "internalType": "uint256",
          "name": "",
          "type": "uint256"
        },
        {
          "internalType": "uint256",
          "name": "",
          "type": "uint256"
        }
      ],
      "name": "amountDonated",
      "outputs": [
        {
          "internalType": "uint256",
          "name": "postId",
          "type": "uint256"
        },
        {
          "internalType": "address",
          "name": "donor",
          "type": "address"
        },
        {
          "internalType": "address",
          "name": "receiver",
          "type": "address"
        },
        {
          "internalType": "uint256",
          "name": "amount",
          "type": "uint256"
        },
        {
          "internalType": "uint256",
          "name": "time",
          "type": "uint256"
        }
      ],
      "stateMutability": "view",
      "type": "function"
    },
    {
      "inputs": [
        {
          "internalType": "address",
          "name": "userm",
          "type": "address"
        },
        {
          "internalType": "string",
          "name": "passwordm",
          "type": "string"
        }
      ],
      "name": "creatUser",
      "outputs": [
        {
          "internalType": "bool",
          "name": "success",
          "type": "bool"
        }
      ],
      "stateMutability": "nonpayable",
      "type": "function"
    },
    {
      "inputs": [
        {
          "internalType": "address",
          "name": "_user",
          "type": "address"
        },
        {
          "components": [
            {
              "internalType": "string",
              "name": "firstName",
              "type": "string"
            },
            {
              "internalType": "string",
              "name": "lastName",
              "type": "string"
            }
          ],
          "internalType": "struct Voyte.UserName",
          "name": "_username",
          "type": "tuple"
        },
        {
          "components": [
            {
              "internalType": "bytes32",
              "name": "email",
              "type": "bytes32"
            },
            {
              "internalType": "bytes32",
              "name": "website",
              "type": "bytes32"
            },
            {
              "internalType": "uint256",
              "name": "phone",
              "type": "uint256"
            },
            {
              "internalType": "bytes32",
              "name": "physicalAddress",
              "type": "bytes32"
            }
          ],
          "internalType": "struct Voyte.Contact",
          "name": "_contact",
          "type": "tuple"
        },
        {
          "internalType": "bytes32",
          "name": "_bio",
          "type": "bytes32"
        },
        {
          "internalType": "bytes32",
          "name": "_country",
          "type": "bytes32"
        },
        {
          "internalType": "bytes32",
          "name": "_profileImg",
          "type": "bytes32"
        },
        {
          "internalType": "bytes32",
          "name": "_coverImg",
          "type": "bytes32"
        },
        {
          "internalType": "bytes32",
          "name": "_profileType",
          "type": "bytes32"
        }
      ],
      "name": "createProfile",
      "outputs": [
        {
          "internalType": "bool",
          "name": "success",
          "type": "bool"
        }
      ],
      "stateMutability": "nonpayable",
      "type": "function"
    },
    {
      "inputs": [
        {
          "internalType": "address",
          "name": "user",
          "type": "address"
        }
      ],
      "name": "deleteFromUpdateAddressStatus",
      "outputs": [],
      "stateMutability": "nonpayable",
      "type": "function"
    },
    {
      "inputs": [
        {
          "internalType": "address",
          "name": "_user",
          "type": "address"
        },
        {
          "internalType": "uint256",
          "name": "_postId",
          "type": "uint256"
        },
        {
          "internalType": "uint32",
          "name": "_postIndex",
          "type": "uint32"
        }
      ],
      "name": "deletePost",
      "outputs": [
        {
          "internalType": "bool",
          "name": "success",
          "type": "bool"
        }
      ],
      "stateMutability": "nonpayable",
      "type": "function"
    },
    {
      "inputs": [
        {
          "internalType": "address",
          "name": "user",
          "type": "address"
        }
      ],
      "name": "deleteProfile",
      "outputs": [],
      "stateMutability": "nonpayable",
      "type": "function"
    },
    {
      "inputs": [
        {
          "internalType": "address",
          "name": "_user",
          "type": "address"
        }
      ],
      "name": "getProfile",
      "outputs": [
        {
          "components": [
            {
              "internalType": "bool",
              "name": "exists",
              "type": "bool"
            },
            {
              "internalType": "address",
              "name": "mAddress",
              "type": "address"
            },
            {
              "components": [
                {
                  "internalType": "string",
                  "name": "firstName",
                  "type": "string"
                },
                {
                  "internalType": "string",
                  "name": "lastName",
                  "type": "string"
                }
              ],
              "internalType": "struct Voyte.UserName",
              "name": "userName",
              "type": "tuple"
            },
            {
              "components": [
                {
                  "internalType": "bytes32",
                  "name": "email",
                  "type": "bytes32"
                },
                {
                  "internalType": "bytes32",
                  "name": "website",
                  "type": "bytes32"
                },
                {
                  "internalType": "uint256",
                  "name": "phone",
                  "type": "uint256"
                },
                {
                  "internalType": "bytes32",
                  "name": "physicalAddress",
                  "type": "bytes32"
                }
              ],
              "internalType": "struct Voyte.Contact",
              "name": "Contact",
              "type": "tuple"
            },
            {
              "internalType": "bytes32",
              "name": "bio",
              "type": "bytes32"
            },
            {
              "internalType": "bytes32",
              "name": "country",
              "type": "bytes32"
            },
            {
              "internalType": "bytes32",
              "name": "profileImg",
              "type": "bytes32"
            },
            {
              "internalType": "bytes32",
              "name": "coverImg",
              "type": "bytes32"
            },
            {
              "internalType": "bytes32",
              "name": "ProfileType",
              "type": "bytes32"
            },
            {
              "internalType": "bool",
              "name": "isVerified",
              "type": "bool"
            }
          ],
          "internalType": "struct Voyte.Profile",
          "name": "",
          "type": "tuple"
        }
      ],
      "stateMutability": "view",
      "type": "function"
    },
    {
      "inputs": [],
      "name": "getProfilesTotal",
      "outputs": [
        {
          "internalType": "uint256",
          "name": "postNum",
          "type": "uint256"
        }
      ],
      "stateMutability": "view",
      "type": "function"
    },
    {
      "inputs": [
        {
          "internalType": "address",
          "name": "user",
          "type": "address"
        }
      ],
      "name": "getUserPosts",
      "outputs": [
        {
          "components": [
            {
              "internalType": "uint256",
              "name": "postId",
              "type": "uint256"
            },
            {
              "internalType": "address",
              "name": "mAddress",
              "type": "address"
            },
            {
              "internalType": "address",
              "name": "affliation",
              "type": "address"
            },
            {
              "internalType": "uint256",
              "name": "minAmounts",
              "type": "uint256"
            },
            {
              "internalType": "bytes32",
              "name": "caption",
              "type": "bytes32"
            },
            {
              "internalType": "bytes32",
              "name": "message",
              "type": "bytes32"
            },
            {
              "internalType": "bytes32",
              "name": "mediaUrls",
              "type": "bytes32"
            },
            {
              "internalType": "uint256",
              "name": "dateCreated",
              "type": "uint256"
            },
            {
              "internalType": "uint256",
              "name": "dateModified",
              "type": "uint256"
            }
          ],
          "internalType": "struct Voyte.Post[]",
          "name": "",
          "type": "tuple[]"
        }
      ],
      "stateMutability": "view",
      "type": "function"
    },
    {
      "inputs": [
        {
          "internalType": "address",
          "name": "",
          "type": "address"
        },
        {
          "internalType": "uint256",
          "name": "",
          "type": "uint256"
        }
      ],
      "name": "groupedPosts",
      "outputs": [
        {
          "internalType": "uint256",
          "name": "postId",
          "type": "uint256"
        },
        {
          "internalType": "address",
          "name": "mAddress",
          "type": "address"
        },
        {
          "internalType": "address",
          "name": "affliation",
          "type": "address"
        },
        {
          "internalType": "uint256",
          "name": "minAmounts",
          "type": "uint256"
        },
        {
          "internalType": "bytes32",
          "name": "caption",
          "type": "bytes32"
        },
        {
          "internalType": "bytes32",
          "name": "message",
          "type": "bytes32"
        },
        {
          "internalType": "bytes32",
          "name": "mediaUrls",
          "type": "bytes32"
        },
        {
          "internalType": "uint256",
          "name": "dateCreated",
          "type": "uint256"
        },
        {
          "internalType": "uint256",
          "name": "dateModified",
          "type": "uint256"
        }
      ],
      "stateMutability": "view",
      "type": "function"
    },
    {
      "inputs": [
        {
          "internalType": "address",
          "name": "mUser",
          "type": "address"
        },
        {
          "internalType": "string",
          "name": "passwordm",
          "type": "string"
        }
      ],
      "name": "login",
      "outputs": [
        {
          "internalType": "bool",
          "name": "success",
          "type": "bool"
        }
      ],
      "stateMutability": "view",
      "type": "function"
    },
    {
      "inputs": [
        {
          "internalType": "uint256",
          "name": "aPostId",
          "type": "uint256"
        },
        {
          "internalType": "address",
          "name": "aDonor",
          "type": "address"
        },
        {
          "internalType": "address",
          "name": "aReceiver",
          "type": "address"
        },
        {
          "internalType": "uint256",
          "name": "aAmount",
          "type": "uint256"
        },
        {
          "internalType": "uint256",
          "name": "aTime",
          "type": "uint256"
        }
      ],
      "name": "mDonate",
      "outputs": [
        {
          "internalType": "bool",
          "name": "success",
          "type": "bool"
        }
      ],
      "stateMutability": "nonpayable",
      "type": "function"
    },
    {
      "inputs": [],
      "name": "myOwner",
      "outputs": [
        {
          "internalType": "address",
          "name": "",
          "type": "address"
        }
      ],
      "stateMutability": "view",
      "type": "function"
    },
    {
      "inputs": [],
      "name": "owner",
      "outputs": [
        {
          "internalType": "address",
          "name": "",
          "type": "address"
        }
      ],
      "stateMutability": "view",
      "type": "function"
    },
    {
      "inputs": [],
      "name": "postId",
      "outputs": [
        {
          "internalType": "uint256",
          "name": "",
          "type": "uint256"
        }
      ],
      "stateMutability": "view",
      "type": "function"
    },
    {
      "inputs": [],
      "name": "profileCounter",
      "outputs": [
        {
          "internalType": "uint256",
          "name": "",
          "type": "uint256"
        }
      ],
      "stateMutability": "view",
      "type": "function"
    },
    {
      "inputs": [
        {
          "internalType": "address",
          "name": "user",
          "type": "address"
        },
        {
          "internalType": "bool",
          "name": "isBanned",
          "type": "bool"
        },
        {
          "internalType": "bool",
          "name": "isRectricated",
          "type": "bool"
        },
        {
          "internalType": "string",
          "name": "reason",
          "type": "string"
        }
      ],
      "name": "updateAddressStatus",
      "outputs": [],
      "stateMutability": "nonpayable",
      "type": "function"
    }
  ],
  "bytecode": "0x60806040526000600355600060075534801561001a57600080fd5b50d3801561002757600080fd5b50d2801561003457600080fd5b50600080546001600160a01b03191633908117825580825260026020526040909120805460ff191660011790556001600160a01b03167f132a9997e52e2c9a263663f4e0d70844d7e683776839188028d514deea1fb13e600160405161009e911515815260200190565b60405180910390a2611d61806100b56000396000f3fe608060405234801561001057600080fd5b50d3801561001d57600080fd5b50d2801561002a57600080fd5b506004361061013b5760003560e01c80638bed1e97116100c7578063a0441f291161008b578063a0441f29146102b6578063a4230bd5146102c9578063d2db3572146102dc578063e0d94e20146102ef578063f5c0753c1461035257600080fd5b80638bed1e971461023c5780638da5cb5b1461024f57806390c74d5e1461027a57806399612563146102835780639a2194a91461029657600080fd5b80636034c0db1161010e5780636034c0db146101e557806360a0ecda146101f8578063863efa181461020157806386621217146102165780638a134e431461022957600080fd5b80630f53a470146101405780632f19d50b14610169578063328b54a21461018c57806340a3a4d8146101d3575b600080fd5b61015361014e366004611646565b610365565b6040516101609190611b24565b60405180910390f35b61017c61017736600461170a565b610573565b6040519015158152602001610160565b61019f61019a366004611960565b610688565b604080519586526001600160a01b03948516602087015292909316918401919091526060830152608082015260a001610160565b6007545b604051908152602001610160565b61017c6101f336600461170a565b6106e1565b6101d7600a5481565b61021461020f36600461169b565b61080a565b005b61017c610224366004611912565b610902565b61017c6102373660046118b1565b610a1e565b61017c61024a366004611758565b610b86565b600054610262906001600160a01b031681565b6040516001600160a01b039091168152602001610160565b6101d760075481565b610214610291366004611646565b610e98565b6102a96102a4366004611646565b610f3d565b6040516101609190611a01565b6102146102c4366004611646565b611014565b6102146102d7366004611668565b611112565b61017c6102ea366004611868565b6111d4565b6103026102fd36600461183e565b611332565b60408051998a526001600160a01b0398891660208b015296909716958801959095526060870193909352608086019190915260a085015260c084015260e083015261010082015261012001610160565b600154610262906001600160a01b031681565b61036d6113a7565b6001600160a01b03808316600090815260086020908152604091829020825161014081018452815460ff811615158252610100900490941691840191909152815180830183526001820180549293850192829082906103cb90611c9b565b80601f01602080910402602001604051908101604052809291908181526020018280546103f790611c9b565b80156104445780601f1061041957610100808354040283529160200191610444565b820191906000526020600020905b81548152906001019060200180831161042757829003601f168201915b5050505050815260200160018201805461045d90611c9b565b80601f016020809104026020016040519081016040528092919081815260200182805461048990611c9b565b80156104d65780601f106104ab576101008083540402835291602001916104d6565b820191906000526020600020905b8154815290600101906020018083116104b957829003601f168201915b5050505050815250508152602001600382016040518060800160405290816000820154815260200160018201548152602001600282015481526020016003820154815250508152602001600782015481526020016008820154815260200160098201548152602001600a8201548152602001600b8201548152602001600c820160009054906101000a900460ff1615151515815250509050919050565b6001600160a01b0382166000908152600460205260408120600101805482919061059c90611c9b565b80601f01602080910402602001604051908101604052809291908181526020018280546105c890611c9b565b80156106155780601f106105ea57610100808354040283529160200191610615565b820191906000526020600020905b8154815290600101906020018083116105f857829003601f168201915b50505050509050825181511461062f576000915050610682565b8260405160200161064091906119e5565b604051602081830303815290604052805190602001208160405160200161066791906119e5565b60405160208183030381529060405280519060200120149150505b92915050565b600c60205281600052604060002081815481106106a457600080fd5b6000918252602090912060059091020180546001820154600283015460038401546004909401549295506001600160a01b03918216945016919085565b6040805160808101825260018082526001600160a01b038581166020808501828152858701888152600060608801819052938452600483529683208651815492516001600160a81b0319909316901515610100600160a81b0319161761010092909516919091029390931783559451805191958594610767939085019290910190611440565b50606091909101516002909101805461ffff191661ffff9092169190911790556003805490600061079783611cd6565b90915550506003546000908152600560205260409081902080546001600160a01b0319166001600160a01b038716179055517fce1cf07fe7a42fe655b9356f0aebf4b6df57417caf6b17058f3c935fe013f1ea906107f89083904290611bf0565b60405180910390a15060019392505050565b3360009081526002602052604090205460ff166108425760405162461bcd60e51b815260040161083990611aed565b60405180910390fd5b60408051606081018252841515815283151560208083019182528284018581526001600160a01b0389166000908152600683529490942083518154935161ffff1990941690151561ff001916176101009315159390930292909217825592518051929384936108b79260018501920190611440565b5050604080516001600160a01b03881681524260208201527f1c07d4a78d1fefbdfd9901852f7396e245411b0ecadec8d5ef23af6e8202078f92500160405180910390a15050505050565b6001600160a01b038316600090815260086020526040812054849060ff1661093c5760405162461bcd60e51b815260040161083990611aa5565b6040805160a0810182528881526001600160a01b038089166020808401918252898316848601908152606085018a8152608086018a815260008f8152600c8552888120805460018181018355918352959091208851600590960201948555945194840180549587166001600160a01b031996871617905591516002840180549190961694169390931790935590516003820155905160049091015590517f48e88a23123480b8a3386f45f7e23322d37b7731dd4eda4500548652fc5c7ed290610a08908a815260200190565b60405180910390a1506001979650505050505050565b6001600160a01b038616600090815260086020526040812054879060ff16610a585760405162461bcd60e51b815260040161083990611aa5565b60408051610120810182528a81526001600160a01b03808b1660208084018281528c8416858701908152606086018d8152608087018d815260a088018d815260c089018d81524260e08b018181526101008c019182526000998a52600b89529b8920805460018181018355918b52988a208c516009909a020198895596519688018054978b166001600160a01b0319988916179055945160028801805491909a169616959095179097559051600385015551600484015593516005830155516006820155935160078501559051600890930192909255600a805491927f0de048fe4a0ee495f40725d38843d22f9ab4026b2b70b60e9a8255fb313fe164929190610b6183611cd6565b9091555060405190815260200160405180910390a15060019998505050505050505050565b6001600160a01b038816600090815260086020526040812054899060ff1615610bfd5760405162461bcd60e51b815260206004820152602360248201527f54686973206164647265737320616c72656164792068617320616e206163636f6044820152621d5b9d60ea1b6064820152608401610839565b6001600160a01b038a166000908152600460205260409020548a9060ff16610c7a5760405162461bcd60e51b815260206004820152602a60248201527f506c656173652063726561746520612075736572206163636f756e743b2063726044820152696561746555736572282960b01b6064820152608401610839565b60078054906000610c8a83611cd6565b919050555060006040518061014001604052806001151581526020018d6001600160a01b031681526020018c81526020018b81526020018a815260200189815260200188815260200187815260200186815260200160001515815250905080600860008e6001600160a01b03166001600160a01b0316815260200190815260200160002060008201518160000160006101000a81548160ff02191690831515021790555060208201518160000160016101000a8154816001600160a01b0302191690836001600160a01b031602179055506040820151816001016000820151816000019080519060200190610d80929190611440565b506020828101518051610d999260018501920190611440565b505050606082810151805160038401556020808201516004850155604080830151600586015591909201516006840155608084015160078085019190915560a0850151600885015560c085015160098086019190915560e0860151600a860155610100860151600b86015561012090950151600c909401805494151560ff1990951694909417909355915460009081529290529081902080546001600160a01b038f166001600160a01b0319909116811790915590517fe4389ab9c67cce68e65561d8fc2fabf4d88b4c66a0874e1b7980682de416818990610e7e9042815260200190565b60405180910390a25060019b9a5050505050505050505050565b3360009081526002602052604090205460ff16610ec75760405162461bcd60e51b815260040161083990611aed565b6001600160a01b0381166000908152600660205260408120805461ffff1916815590610ef660018301826114c4565b5050604080516001600160a01b03831681524260208201527f66c485a7afebd091c76654cfbb43b156d0081a6b6107c852a5f729de1a7de47d91015b60405180910390a150565b6001600160a01b0381166000908152600b60209081526040808320805482518185028101850190935280835260609492939192909184015b82821015611009576000848152602090819020604080516101208101825260098602909201805483526001808201546001600160a01b0390811685870152600283015416928401929092526003810154606084015260048101546080840152600581015460a0840152600681015460c0840152600781015460e0840152600801546101008301529083529092019101610f75565b505050509050919050565b3360009081526002602052604090205460ff166110435760405162461bcd60e51b815260040161083990611aed565b6001600160a01b038116600090815260086020526040812080546001600160a81b031916815590600182018161107982826114c4565b6110876001830160006114c4565b5050600060038301819055600483018190556005830181905560068301819055600783018190556008830181905560098301819055600a8301819055600b83015550600c01805460ff19169055604080516001600160a01b03831681524260208201527f27e6d19045fa42aefaf3ca4343027288e2a2f96071fc11e4e002789284bf4ba89101610f32565b6000546001600160a01b0316336001600160a01b0316146111755760405162461bcd60e51b815260206004820152601c60248201527f4f6e6c792061636365737369626c6520746f20746865206f776e6572000000006044820152606401610839565b6001600160a01b038216600081815260026020908152604091829020805460ff191685151590811790915591519182527f132a9997e52e2c9a263663f4e0d70844d7e683776839188028d514deea1fb13e910160405180910390a25050565b6001600160a01b038316600090815260086020526040812054849060ff1661120e5760405162461bcd60e51b815260040161083990611aa5565b6001600160a01b0385166000908152600b60205260409020805485919063ffffffff861690811061124157611241611cff565b9060005260206000209060090201600001541415611325576001600160a01b0385166000908152600b60205260409020805463ffffffff851690811061128957611289611cff565b6000918252602082206009909102018181556001810180546001600160a01b031990811690915560028201805490911690556003810182905560048101829055600581018290556006810182905560078101829055600801556040517f75c16cb2049d0e4c1a90a87257ac0fbf1f5e15f36f6dbd1f0ccd7abb51908b31906113149086815260200190565b60405180910390a16001915061132a565b600091505b509392505050565b600b602052816000526040600020818154811061134e57600080fd5b60009182526020909120600990910201805460018201546002830154600384015460048501546005860154600687015460078801546008909801549699506001600160a01b039586169850949093169591949093919089565b60405180610140016040528060001515815260200160006001600160a01b031681526020016113e9604051806040016040528060608152602001606081525090565b815260408051608081018252600080825260208281018290529282018190526060820152910190815260006020820181905260408201819052606082018190526080820181905260a0820181905260c09091015290565b82805461144c90611c9b565b90600052602060002090601f01602090048101928261146e57600085556114b4565b82601f1061148757805160ff19168380011785556114b4565b828001600101855582156114b4579182015b828111156114b4578251825591602001919060010190611499565b506114c0929150611501565b5090565b5080546114d090611c9b565b6000825580601f106114e0575050565b601f0160209004906000526020600020908101906114fe9190611501565b50565b5b808211156114c05760008155600101611502565b600081356001600160a81b038116811461152f57600080fd5b6001600160a01b031692915050565b8035801515811461154e57600080fd5b919050565b600082601f83011261156457600080fd5b813567ffffffffffffffff8082111561157f5761157f611d15565b604051601f8301601f19908116603f011681019082821181831017156115a7576115a7611d15565b816040528381528660208588010111156115c057600080fd5b836020870160208301376000602085830101528094505050505092915050565b6000608082840312156115f257600080fd5b6040516080810181811067ffffffffffffffff8211171561161557611615611d15565b8060405250809150823581526020830135602082015260408301356040820152606083013560608201525092915050565b60006020828403121561165857600080fd5b61166182611516565b9392505050565b6000806040838503121561167b57600080fd5b61168483611516565b91506116926020840161153e565b90509250929050565b600080600080608085870312156116b157600080fd5b6116ba85611516565b93506116c86020860161153e565b92506116d66040860161153e565b9150606085013567ffffffffffffffff8111156116f257600080fd5b6116fe87828801611553565b91505092959194509250565b6000806040838503121561171d57600080fd5b61172683611516565b9150602083013567ffffffffffffffff81111561174257600080fd5b61174e85828601611553565b9150509250929050565b600080600080600080600080610160898b03121561177557600080fd5b61177e89611516565b9750602089013567ffffffffffffffff8082111561179b57600080fd5b908a01906040828d0312156117af57600080fd5b6117b7611c42565b8235828111156117c657600080fd5b6117d28e828601611553565b8252506020830135828111156117e757600080fd5b6117f38e828601611553565b60208301525080995050505061180c8a60408b016115e0565b979a969950969760c0810135975060e08101359661010082013596506101208201359550610140909101359350915050565b6000806040838503121561185157600080fd5b61185a83611516565b946020939093013593505050565b60008060006060848603121561187d57600080fd5b61188684611516565b925060208401359150604084013563ffffffff811681146118a657600080fd5b809150509250925092565b600080600080600080600060e0888a0312156118cc57600080fd5b873596506118dc60208901611516565b95506118ea60408901611516565b969995985095966060810135965060808101359560a0820135955060c0909101359350915050565b600080600080600060a0868803121561192a57600080fd5b8535945061193a60208701611516565b935061194860408701611516565b94979396509394606081013594506080013592915050565b6000806040838503121561197357600080fd5b50508035926020909101359150565b6000815180845261199a816020860160208601611c6b565b601f01601f19169290920160200192915050565b60008151604084526119c36040850182611982565b9050602083015184820360208601526119dc8282611982565b95945050505050565b600082516119f7818460208701611c6b565b9190910192915050565b602080825282518282018190526000919060409081850190868401855b82811015611a9857815180518552868101516001600160a01b0390811688870152868201511686860152606080820151908601526080808201519086015260a0808201519086015260c0808201519086015260e0808201519086015261010090810151908501526101209093019290850190600101611a1e565b5091979650505050505050565b60208082526028908201527f596f75206d7573742063726561746520612070726f66696c6520746f206d616b604082015267194818481c1bdcdd60c21b606082015260800190565b6020808252601b908201527f4f6e6c792061636365737369626c6520746f20616e2041646d696e0000000000604082015260600190565b60208152611b3760208201835115159052565b60006020830151611b5360408401826001600160a01b03169052565b5060408301516101a0806060850152611b706101c08501836119ae565b60608681015180516080880152602081015160a0880152604081015160c08801529081015160e08701529092505060808501516101008581019190915260a08601516101208087019190915260c087015161014087015260e087015161016087015290860151610180860152850151801515828601525090949350505050565b6040808252835115158282015260208401516001600160a01b03166060830152830151608080830152600090611c2960c0840182611982565b6060959095015161ffff1660a084015250506020015290565b6040805190810167ffffffffffffffff81118282101715611c6557611c65611d15565b60405290565b60005b83811015611c86578181015183820152602001611c6e565b83811115611c95576000848401525b50505050565b600181811c90821680611caf57607f821691505b60208210811415611cd057634e487b7160e01b600052602260045260246000fd5b50919050565b6000600019821415611cf857634e487b7160e01b600052601160045260246000fd5b5060010190565b634e487b7160e01b600052603260045260246000fd5b634e487b7160e01b600052604160045260246000fdfea26474726f6e58221220d756ac57996859e6026aa6b900341dc0fe7b436cd9b1f628ed5c651a9a783de364736f6c63430008060033",
  "source": "//SPDX-License-Identifier: GPL-3.0\r\npragma solidity ^0.8.0;\r\n\r\nabstract contract Context {\r\n\r\n    function _msgSender() internal view virtual returns (address) {\r\n        return msg.sender;\r\n    }\r\n\r\n    function _msgData() internal view virtual returns (bytes calldata) {\r\n        return msg.data;\r\n    }\r\n\r\n    function _msgValue() internal view virtual returns (uint256 value) {\r\n        return msg.value;\r\n    }    \r\n\r\n\r\n}\r\n\r\nabstract contract Owner is Context {\r\n    address public owner;\r\n\r\n    constructor () {\r\n        owner = _msgSender();\r\n    }\r\n\r\n\r\n    /**\r\n    * Throws if called by any account other than the owner.\r\n     */\r\n\r\n    modifier onlyOwner() {\r\n        require(_msgSender() == owner,\"Only accessible to the owner\");\r\n        _;\r\n    }\r\n\r\n    /**\r\n    * check if the current caller is the contract owner.\r\n     */\r\n\r\n    function isOwner() internal view returns(bool) {\r\n        return owner == _msgSender();\r\n    }\r\n    \r\n}\r\n\r\n\r\n\r\ncontract Voyte is Owner{\r\n    \r\n    address public myOwner;\r\n\r\n    mapping(address => bool) admin;\r\n    event Admin(address indexed user, bool status);\r\n\r\n    constructor() {\r\n        admin[_msgSender()] = true;\r\n        emit Admin(_msgSender(),true);\r\n    }\r\n\r\n    modifier onlyAdmin(){\r\n        require(admin[_msgSender()],\"Only accessible to an Admin\");\r\n        _;\r\n    }\r\n\r\n    function addAdmin(address user,bool status) onlyOwner external {\r\n        admin[user] = status;\r\n        emit Admin(user,status);\r\n    }\r\n    \r\n\r\n\r\n///////////////////////////////////////////////////////////////////////////////////////////////////////\r\n//////////////////////////////// Users Users Users ////////////////////////////////////////////////////\r\n\r\n\r\n    struct User {\r\n        bool exist;\r\n        address user;\r\n        string password;\r\n        uint16 resetCode;\r\n    }\r\n    \r\n    uint256 userCounter = 0;\r\n    mapping(address => User ) users;\r\n    mapping(uint256 => address ) addressIndex;\r\n    \r\n    \r\n    \r\n    // creats a user \r\n    event CreateUser (User user, uint time); \r\n    function creatUser(address userm, string memory passwordm) public returns (bool success ){\r\n        User memory user = User(true,userm,passwordm,0);\r\n        users[userm] = user;\r\n        userCounter++;\r\n        \r\n        addressIndex[userCounter] =userm;\r\n        \r\n        emit CreateUser(user,block.timestamp);\r\n        \r\n        return true;\r\n    }\r\n    \r\n    function login(address mUser, string memory passwordm ) public view returns (bool success) {\r\n        \r\n        string memory savedPass = users[mUser].password;\r\n        \r\n        if (bytes(savedPass).length != bytes(passwordm).length) {\r\n            return false;\r\n        }\r\n        \r\n        return keccak256(abi.encodePacked(savedPass)) == keccak256(abi.encodePacked(passwordm));\r\n    }\r\n\r\n    \r\n\r\n///////////////////////////////////////////////////////////////////////////////////////////////////////\r\n//////////////////////////////// ADDRESS STATUS ADDRESS STATUS  ADDRESS STATUS/////////////////////////\r\n\r\n    struct AddressStatus{\r\n        bool isBanned;\r\n        bool isRectricated;\r\n        string reason;\r\n    }\r\n\r\n    mapping(address => AddressStatus) addressStatus;\r\n\r\n    /**\r\n    *   Adds an address to the list of blocked or restricted user depending on the violation\r\n    *\r\n     */\r\n    event UpdateAddressStatus(address user, uint256 timestamp);\r\n\r\n    function updateAddressStatus(address user, bool isBanned, bool isRectricated,string memory reason) onlyAdmin public {\r\n        AddressStatus memory addStatus = AddressStatus(isBanned,isRectricated,reason);\r\n        addressStatus[user] = addStatus;\r\n        emit UpdateAddressStatus(user,block.timestamp);\r\n    }\r\n\r\n    /**\r\n    *   Removes an address from the list of blocked or restricted user \r\n    *\r\n     */\r\n\r\n     event DeleteFromUpdateAddressStatus(address user, uint256 timestamp);\r\n\r\n    function deleteFromUpdateAddressStatus (address user) onlyAdmin public{\r\n        delete addressStatus[user];\r\n        emit DeleteFromUpdateAddressStatus(user, block.timestamp);\r\n    }\r\n    \r\n\r\n///////////////////////////////////////////////////////////////////////////////////////////////////////\r\n//////////////////////////////////PROFILE PROFILE PROFILE//////////////////////////////////////////////\r\n\r\n//Profile Voyte\r\n\r\n    modifier hasNoProfile(address user){\r\n        require(!profiles[user].exists,\"This address already has an account\");\r\n        _;\r\n    }\r\n    \r\n    modifier accountCreated(address user){\r\n        require(users[user].exist,\"Please create a user account; createUser()\");\r\n        _;\r\n    }\r\n\r\n    struct UserName {\r\n        string firstName;\r\n        string lastName;\r\n    }\r\n    \r\n    struct Contact {\r\n        bytes32 email;\r\n        bytes32 website;\r\n        uint256 phone;\r\n        bytes32 physicalAddress;\r\n        \r\n    }\r\n\r\n    struct Profile {\r\n        bool exists;\r\n        address mAddress;\r\n        UserName userName;\r\n        Contact Contact;\r\n        bytes32 bio;\r\n        bytes32 country;\r\n        bytes32 profileImg;\r\n        bytes32 coverImg;\r\n        bytes32 ProfileType;\r\n        bool isVerified;\r\n\r\n    }\r\n\r\n    uint256 public profileCounter = 0;\r\n    mapping (address => Profile ) profiles;\r\n    mapping (uint256 => address) profilesIndex;\r\n\r\n    /**\r\n    *   Add a new profile\r\n    *\r\n     */\r\n    event CreateProfile(address indexed user,uint256 timestamp);\r\n\r\n    function createProfile(address _user, UserName memory _username, Contact memory _contact,bytes32 _bio,bytes32 _country, \r\n                             bytes32 _profileImg, bytes32  _coverImg, bytes32  _profileType) hasNoProfile(_user) accountCreated(_user)  public returns (bool success){\r\n\r\n        \r\n        profileCounter ++;\r\n        \r\n        Profile memory profile = Profile(true,_user,_username,_contact,_bio,_country,_profileImg,_coverImg,_profileType,false);\r\n        profiles[_user] = profile;\r\n        profilesIndex[profileCounter] = _user;\r\n\r\n        emit CreateProfile(_user,block.timestamp);\r\n\r\n        return true;\r\n\r\n    }\r\n\r\n    function getProfile(address _user) public view returns (Profile memory) {\r\n        return profiles[_user];\r\n    }\r\n\r\n    function getProfilesTotal() public view returns (uint256 postNum){\r\n        return profileCounter;\r\n    }\r\n\r\n    /**\r\n    *   deletes profile\r\n    */\r\n\r\n    event DeleteProfile(address user, uint256 timestamp);\r\n\r\n    function deleteProfile(address user) public onlyAdmin (){\r\n        delete profiles[user];\r\n\r\n        emit DeleteProfile(user,block.timestamp);\r\n    }\r\n    \r\n\r\n///////////////////////////////////////////////////////////////////////////////////////////////////////\r\n//////////////////////////////////POST POST POST POST//////////////////////////////////////////////////\r\n\r\n    modifier hasProfile(address user){\r\n        require(profiles[user].exists,\"You must create a profile to make a post\");\r\n        _;\r\n    }\r\n\r\n    struct Post {\r\n        \r\n        uint256 postId;\r\n        address mAddress;\r\n        address affliation;\r\n        uint256 minAmounts;\r\n        bytes32 caption;\r\n        bytes32 message;\r\n        bytes32 mediaUrls;\r\n        uint256 dateCreated;\r\n        uint256 dateModified;\r\n        \r\n    }\r\n\r\n    uint256 public postId;\r\n\r\n    mapping (address => Post[] ) public groupedPosts;\r\n\r\n    \r\n\r\n    /**\r\n    * Creates a post\r\n    */\r\n\r\n    event NewPost(uint256 postId);\r\n\r\n    function addPost(uint256 _postId, address _user, address _affiliation, uint256 _minAmount, bytes32 _caption, bytes32 _message, bytes32 _mediaUrl) hasProfile(_user) public returns (bool success){\r\n        Post memory post = Post(_postId,_user,_affiliation,_minAmount,_caption,_message,_mediaUrl,block.timestamp,block.timestamp);\r\n\r\n        groupedPosts[_user].push(post);\r\n\r\n        emit NewPost(postId++);\r\n\r\n        return true;\r\n    }\r\n\r\n    function getUserPosts(address user) public view returns (Post[] memory) {\r\n        return groupedPosts[user];\r\n    }\r\n\r\n    /**\r\n    *   Deletes a posts, only onwer \r\n    */\r\n    event DeletePost(uint256 postId);\r\n\r\n     function deletePost( address _user,uint256 _postId, uint32 _postIndex) hasProfile(_user) public returns (bool success) {\r\n         \r\n        if(groupedPosts[_user][_postIndex].postId == _postId){\r\n            delete groupedPosts[_user][_postIndex];\r\n            emit DeletePost(_postId);\r\n            return true;\r\n        }\r\n\r\n        return false;\r\n     }\r\n     \r\n     \r\n    /////make changes to values methods\r\n    \r\n    /*\r\n    \r\n        //Affliation\r\n    \r\n    function setAffliation (address _user, address _affiliation, uint256 _postId, uint256 _postIndex) public returns ( bool success ) {\r\n        \r\n        \r\n        if(groupedPosts[_user][_postIndex].postId == _postId){\r\n            groupedPosts[_user][_postIndex].affliation = _affiliation;\r\n            \r\n            return true;\r\n        }\r\n        \r\n        return false;\r\n        \r\n    }\r\n        // minAmounts;\r\n   \r\n    function setMinAmount (address _user, uint256 _minAmount, uint256 _postId, uint256 _postIndex) public returns ( bool success ) {\r\n        \r\n     \r\n        if(groupedPosts[_user][_postIndex].postId == _postId){\r\n            groupedPosts[_user][_postIndex].minAmounts = _minAmount;\r\n            \r\n            return true;\r\n        }\r\n        \r\n        return false;\r\n        \r\n    }\r\n    \r\n        // caption;\r\n        \r\n   \r\n    function setCaption (address _user, string memory _caption, uint256 _postId, uint256 _postIndex) public returns ( bool success ) {\r\n        \r\n    \r\n        \r\n        if(groupedPosts[_user][_postIndex].postId == _postId){\r\n            groupedPosts[_user][_postIndex].caption = _caption;\r\n            \r\n            return true;\r\n        }\r\n        \r\n        return false;\r\n        \r\n    }\r\n        // message;\r\n        \r\n    \r\n    function setMessage (address _user, string memory _message, uint256 _postId, uint256 _postIndex) public returns ( bool success ) {\r\n\r\n        \r\n        if(groupedPosts[_user][_postIndex].postId == _postId){\r\n            groupedPosts[_user][_postIndex].message = _message;\r\n            \r\n            return true;\r\n        }\r\n        \r\n        return false;\r\n        \r\n    }\r\n        // mediaUrls;\r\n        \r\n\r\n    function setMedialUrl (address _user, string memory _mediaUrl, uint256 _postId, uint256 _postIndex) public returns ( bool success ) {\r\n        \r\n        \r\n        if(groupedPosts[_user][_postIndex].postId == _postId){\r\n            groupedPosts[_user][_postIndex].mediaUrls = _mediaUrl;\r\n            \r\n            return true;\r\n        }\r\n        return false;\r\n    }\r\n\r\n*/\r\n///////////////////////////////////////////////////////////////////////////////////////////////////////\r\n///////////////////// AMOUNT DONATED AMOUNT DONATED AMOUNT DONATED AMOUNT DONATED//////////////////////\r\n\r\n    /**\r\n    *   To keep tracts the amount payed per year and month\r\n    */\r\n\r\n    struct AmountDonated {\r\n        uint256 postId;\r\n        address donor;\r\n        address receiver;\r\n        uint256 amount;\r\n        uint256 time;\r\n    }\r\n\r\n    mapping ( uint256 => AmountDonated[] ) public amountDonated;\r\n\r\n    event NewAmountDonated (uint256 _PostId );\r\n\r\n    function mDonate(uint256 aPostId,address aDonor, address aReceiver, uint256 aAmount, uint256 aTime) hasProfile(aReceiver) public returns (bool success){\r\n        AmountDonated memory amountDonate = AmountDonated(aPostId,aDonor,aReceiver,aAmount,aTime);\r\n\r\n        amountDonated[aPostId].push(amountDonate);\r\n\r\n        emit NewAmountDonated(aPostId);\r\n\r\n        return true;\r\n    } \r\n\r\n\r\n    /**\r\n    *   send Trx to the post ower\r\n    *\r\n    */\r\n\r\n     function _sendTrx(address receiver, uint256 amount) internal {\r\n        payable(address(receiver)).transfer(amount);\r\n     }\r\n\r\n\r\n}\r\n\r\n",
  "sourcePath": "C:/Users/Mercy Z/Desktop/Tron/contract/contracts/Voyte.sol",
  "compiler": {
    "name": "solc",
    "version": "0.8.6+commit.0e36fba0.mod.Emscripten.clang"
  },
  "schemaVersion": "2.0.1",
  "updatedAt": "2023-09-30T20:08:00.509Z"
}