{
  "contractName": "Voyte",
  "abi": [
    {
      "inputs": [],
      "stateMutability": "nonpayable",
      "type": "constructor"
    },
    {
      "anonymous": false,
      "inputs": [
        {
          "indexed": true,
          "internalType": "address",
          "name": "user",
          "type": "address"
        },
        {
          "indexed": false,
          "internalType": "bool",
          "name": "status",
          "type": "bool"
        }
      ],
      "name": "Admin",
      "type": "event"
    },
    {
      "anonymous": false,
      "inputs": [
        {
          "indexed": false,
          "internalType": "uint256",
          "name": "timestamp",
          "type": "uint256"
        }
      ],
      "name": "CreateProfile",
      "type": "event"
    },
    {
      "anonymous": false,
      "inputs": [
        {
          "indexed": false,
          "internalType": "address",
          "name": "user",
          "type": "address"
        },
        {
          "indexed": false,
          "internalType": "uint256",
          "name": "time",
          "type": "uint256"
        }
      ],
      "name": "CreateUser",
      "type": "event"
    },
    {
      "anonymous": false,
      "inputs": [
        {
          "indexed": false,
          "internalType": "address",
          "name": "user",
          "type": "address"
        },
        {
          "indexed": false,
          "internalType": "uint256",
          "name": "timestamp",
          "type": "uint256"
        }
      ],
      "name": "DeleteFromUpdateAddressStatus",
      "type": "event"
    },
    {
      "anonymous": false,
      "inputs": [
        {
          "indexed": false,
          "internalType": "uint256",
          "name": "postId",
          "type": "uint256"
        }
      ],
      "name": "DeletePost",
      "type": "event"
    },
    {
      "anonymous": false,
      "inputs": [
        {
          "indexed": false,
          "internalType": "address",
          "name": "user",
          "type": "address"
        },
        {
          "indexed": false,
          "internalType": "uint256",
          "name": "timestamp",
          "type": "uint256"
        }
      ],
      "name": "DeleteProfile",
      "type": "event"
    },
    {
      "anonymous": false,
      "inputs": [
        {
          "indexed": false,
          "internalType": "uint256",
          "name": "postId",
          "type": "uint256"
        }
      ],
      "name": "NewPost",
      "type": "event"
    },
    {
      "anonymous": false,
      "inputs": [
        {
          "indexed": false,
          "internalType": "address",
          "name": "user",
          "type": "address"
        },
        {
          "indexed": false,
          "internalType": "uint256",
          "name": "timestamp",
          "type": "uint256"
        }
      ],
      "name": "UpdateAddressStatus",
      "type": "event"
    },
    {
      "inputs": [
        {
          "internalType": "address",
          "name": "user",
          "type": "address"
        },
        {
          "internalType": "bool",
          "name": "status",
          "type": "bool"
        }
      ],
      "name": "addAdmin",
      "outputs": [],
      "stateMutability": "nonpayable",
      "type": "function"
    },
    {
      "inputs": [
        {
          "internalType": "uint80",
          "name": "_postId",
          "type": "uint80"
        },
        {
          "internalType": "address",
          "name": "_user",
          "type": "address"
        },
        {
          "internalType": "string",
          "name": "_password",
          "type": "string"
        },
        {
          "internalType": "address",
          "name": "_affiliation",
          "type": "address"
        },
        {
          "internalType": "uint256",
          "name": "_minAmount",
          "type": "uint256"
        },
        {
          "internalType": "string",
          "name": "_caption",
          "type": "string"
        },
        {
          "internalType": "string",
          "name": "_message",
          "type": "string"
        },
        {
          "internalType": "string",
          "name": "_mediaUrl",
          "type": "string"
        }
      ],
      "name": "addPost",
      "outputs": [
        {
          "internalType": "bool",
          "name": "success",
          "type": "bool"
        }
      ],
      "stateMutability": "nonpayable",
      "type": "function"
    },
    {
      "inputs": [
        {
          "internalType": "address",
          "name": "userm",
          "type": "address"
        },
        {
          "internalType": "string",
          "name": "passwordm",
          "type": "string"
        },
        {
          "internalType": "bytes32",
          "name": "passkey",
          "type": "bytes32"
        }
      ],
      "name": "creatUser",
      "outputs": [
        {
          "internalType": "bool",
          "name": "success",
          "type": "bool"
        }
      ],
      "stateMutability": "nonpayable",
      "type": "function"
    },
    {
      "inputs": [
        {
          "internalType": "address",
          "name": "_user",
          "type": "address"
        },
        {
          "internalType": "string",
          "name": "_password",
          "type": "string"
        },
        {
          "components": [
            {
              "internalType": "string",
              "name": "firstName",
              "type": "string"
            },
            {
              "internalType": "string",
              "name": "lastName",
              "type": "string"
            }
          ],
          "internalType": "struct Voyte.UserName",
          "name": "_username",
          "type": "tuple"
        },
        {
          "components": [
            {
              "internalType": "bytes32",
              "name": "email",
              "type": "bytes32"
            },
            {
              "internalType": "bytes32",
              "name": "website",
              "type": "bytes32"
            },
            {
              "internalType": "uint40",
              "name": "phone",
              "type": "uint40"
            },
            {
              "internalType": "bytes32",
              "name": "physicalAddress",
              "type": "bytes32"
            },
            {
              "internalType": "bytes32",
              "name": "country",
              "type": "bytes32"
            }
          ],
          "internalType": "struct Voyte.Contact",
          "name": "_contact",
          "type": "tuple"
        },
        {
          "internalType": "string",
          "name": "_bio",
          "type": "string"
        },
        {
          "internalType": "bytes32",
          "name": "_profileType",
          "type": "bytes32"
        }
      ],
      "name": "createProfile",
      "outputs": [
        {
          "internalType": "bool",
          "name": "success",
          "type": "bool"
        }
      ],
      "stateMutability": "nonpayable",
      "type": "function"
    },
    {
      "inputs": [
        {
          "internalType": "address",
          "name": "user",
          "type": "address"
        }
      ],
      "name": "deleteFromUpdateAddressStatus",
      "outputs": [],
      "stateMutability": "nonpayable",
      "type": "function"
    },
    {
      "inputs": [
        {
          "internalType": "address",
          "name": "_user",
          "type": "address"
        },
        {
          "internalType": "string",
          "name": "_password",
          "type": "string"
        },
        {
          "internalType": "uint256",
          "name": "_postIndex",
          "type": "uint256"
        },
        {
          "internalType": "uint80",
          "name": "_postId",
          "type": "uint80"
        }
      ],
      "name": "deletePost",
      "outputs": [
        {
          "internalType": "bool",
          "name": "success",
          "type": "bool"
        }
      ],
      "stateMutability": "nonpayable",
      "type": "function"
    },
    {
      "inputs": [
        {
          "internalType": "address",
          "name": "user",
          "type": "address"
        }
      ],
      "name": "deleteProfile",
      "outputs": [],
      "stateMutability": "nonpayable",
      "type": "function"
    },
    {
      "inputs": [
        {
          "internalType": "uint80",
          "name": "_postId",
          "type": "uint80"
        },
        {
          "internalType": "address",
          "name": "_user",
          "type": "address"
        },
        {
          "internalType": "string",
          "name": "_password",
          "type": "string"
        },
        {
          "internalType": "address",
          "name": "_affiliation",
          "type": "address"
        },
        {
          "internalType": "uint256",
          "name": "_minAmount",
          "type": "uint256"
        },
        {
          "internalType": "string",
          "name": "_caption",
          "type": "string"
        },
        {
          "internalType": "string",
          "name": "_message",
          "type": "string"
        },
        {
          "internalType": "string",
          "name": "_mediaUrl",
          "type": "string"
        }
      ],
      "name": "editPost",
      "outputs": [
        {
          "internalType": "bool",
          "name": "success",
          "type": "bool"
        }
      ],
      "stateMutability": "nonpayable",
      "type": "function"
    },
    {
      "inputs": [
        {
          "internalType": "address",
          "name": "_user",
          "type": "address"
        },
        {
          "internalType": "string",
          "name": "_password",
          "type": "string"
        },
        {
          "components": [
            {
              "internalType": "string",
              "name": "firstName",
              "type": "string"
            },
            {
              "internalType": "string",
              "name": "lastName",
              "type": "string"
            }
          ],
          "internalType": "struct Voyte.UserName",
          "name": "_username",
          "type": "tuple"
        },
        {
          "components": [
            {
              "internalType": "bytes32",
              "name": "email",
              "type": "bytes32"
            },
            {
              "internalType": "bytes32",
              "name": "website",
              "type": "bytes32"
            },
            {
              "internalType": "uint40",
              "name": "phone",
              "type": "uint40"
            },
            {
              "internalType": "bytes32",
              "name": "physicalAddress",
              "type": "bytes32"
            },
            {
              "internalType": "bytes32",
              "name": "country",
              "type": "bytes32"
            }
          ],
          "internalType": "struct Voyte.Contact",
          "name": "_contact",
          "type": "tuple"
        },
        {
          "internalType": "string",
          "name": "_bio",
          "type": "string"
        },
        {
          "internalType": "bytes32",
          "name": "_profileType",
          "type": "bytes32"
        }
      ],
      "name": "editProfile",
      "outputs": [
        {
          "internalType": "bool",
          "name": "success",
          "type": "bool"
        }
      ],
      "stateMutability": "nonpayable",
      "type": "function"
    },
    {
      "inputs": [
        {
          "internalType": "bytes32",
          "name": "passkey",
          "type": "bytes32"
        },
        {
          "internalType": "address",
          "name": "_user",
          "type": "address"
        }
      ],
      "name": "getPassword",
      "outputs": [
        {
          "internalType": "string",
          "name": "password",
          "type": "string"
        }
      ],
      "stateMutability": "view",
      "type": "function"
    },
    {
      "inputs": [
        {
          "internalType": "address",
          "name": "_user",
          "type": "address"
        }
      ],
      "name": "getPostAddressData",
      "outputs": [
        {
          "internalType": "uint256[]",
          "name": "data",
          "type": "uint256[]"
        }
      ],
      "stateMutability": "view",
      "type": "function"
    },
    {
      "inputs": [
        {
          "internalType": "address",
          "name": "_user",
          "type": "address"
        }
      ],
      "name": "getPostAddressSize",
      "outputs": [
        {
          "internalType": "uint256",
          "name": "arraySize",
          "type": "uint256"
        }
      ],
      "stateMutability": "view",
      "type": "function"
    },
    {
      "inputs": [],
      "name": "getPostCounter",
      "outputs": [
        {
          "internalType": "uint256",
          "name": "postCounter",
          "type": "uint256"
        }
      ],
      "stateMutability": "view",
      "type": "function"
    },
    {
      "inputs": [
        {
          "internalType": "address",
          "name": "_user",
          "type": "address"
        }
      ],
      "name": "getProfile",
      "outputs": [
        {
          "components": [
            {
              "internalType": "bool",
              "name": "exists",
              "type": "bool"
            },
            {
              "internalType": "address",
              "name": "mAddress",
              "type": "address"
            },
            {
              "components": [
                {
                  "internalType": "string",
                  "name": "firstName",
                  "type": "string"
                },
                {
                  "internalType": "string",
                  "name": "lastName",
                  "type": "string"
                }
              ],
              "internalType": "struct Voyte.UserName",
              "name": "userName",
              "type": "tuple"
            },
            {
              "components": [
                {
                  "internalType": "bytes32",
                  "name": "email",
                  "type": "bytes32"
                },
                {
                  "internalType": "bytes32",
                  "name": "website",
                  "type": "bytes32"
                },
                {
                  "internalType": "uint40",
                  "name": "phone",
                  "type": "uint40"
                },
                {
                  "internalType": "bytes32",
                  "name": "physicalAddress",
                  "type": "bytes32"
                },
                {
                  "internalType": "bytes32",
                  "name": "country",
                  "type": "bytes32"
                }
              ],
              "internalType": "struct Voyte.Contact",
              "name": "Contact",
              "type": "tuple"
            },
            {
              "internalType": "string",
              "name": "bio",
              "type": "string"
            },
            {
              "internalType": "bytes32",
              "name": "ProfileType",
              "type": "bytes32"
            },
            {
              "internalType": "bool",
              "name": "isVerified",
              "type": "bool"
            }
          ],
          "internalType": "struct Voyte.Profile",
          "name": "userAddress",
          "type": "tuple"
        }
      ],
      "stateMutability": "view",
      "type": "function"
    },
    {
      "inputs": [
        {
          "internalType": "uint256",
          "name": "_index",
          "type": "uint256"
        }
      ],
      "name": "getProfileAddress",
      "outputs": [
        {
          "internalType": "address",
          "name": "userAddress",
          "type": "address"
        }
      ],
      "stateMutability": "view",
      "type": "function"
    },
    {
      "inputs": [],
      "name": "getProfileCounter",
      "outputs": [
        {
          "internalType": "uint256",
          "name": "totalProfiles",
          "type": "uint256"
        }
      ],
      "stateMutability": "view",
      "type": "function"
    },
    {
      "inputs": [],
      "name": "getUserCounter",
      "outputs": [
        {
          "internalType": "uint256",
          "name": "totalUsers",
          "type": "uint256"
        }
      ],
      "stateMutability": "view",
      "type": "function"
    },
    {
      "inputs": [
        {
          "internalType": "uint256",
          "name": "_index",
          "type": "uint256"
        }
      ],
      "name": "getUserPost",
      "outputs": [
        {
          "components": [
            {
              "internalType": "uint80",
              "name": "postId",
              "type": "uint80"
            },
            {
              "internalType": "address",
              "name": "mAddress",
              "type": "address"
            },
            {
              "internalType": "address",
              "name": "affliation",
              "type": "address"
            },
            {
              "internalType": "uint256",
              "name": "minAmounts",
              "type": "uint256"
            },
            {
              "internalType": "string",
              "name": "caption",
              "type": "string"
            },
            {
              "internalType": "string",
              "name": "message",
              "type": "string"
            },
            {
              "internalType": "string",
              "name": "mediaUrls",
              "type": "string"
            },
            {
              "internalType": "uint256",
              "name": "dateCreated",
              "type": "uint256"
            }
          ],
          "internalType": "struct Voyte.Post",
          "name": "",
          "type": "tuple"
        }
      ],
      "stateMutability": "view",
      "type": "function"
    },
    {
      "inputs": [
        {
          "internalType": "address",
          "name": "mUser",
          "type": "address"
        },
        {
          "internalType": "string",
          "name": "passwordm",
          "type": "string"
        }
      ],
      "name": "login",
      "outputs": [
        {
          "internalType": "bool",
          "name": "success",
          "type": "bool"
        }
      ],
      "stateMutability": "view",
      "type": "function"
    },
    {
      "inputs": [],
      "name": "myOwner",
      "outputs": [
        {
          "internalType": "address",
          "name": "",
          "type": "address"
        }
      ],
      "stateMutability": "view",
      "type": "function"
    },
    {
      "inputs": [],
      "name": "owner",
      "outputs": [
        {
          "internalType": "address",
          "name": "",
          "type": "address"
        }
      ],
      "stateMutability": "view",
      "type": "function"
    },
    {
      "inputs": [
        {
          "internalType": "address",
          "name": "user",
          "type": "address"
        },
        {
          "internalType": "bool",
          "name": "isBanned",
          "type": "bool"
        },
        {
          "internalType": "bool",
          "name": "isRectricated",
          "type": "bool"
        },
        {
          "internalType": "string",
          "name": "reason",
          "type": "string"
        }
      ],
      "name": "updateAddressStatus",
      "outputs": [],
      "stateMutability": "nonpayable",
      "type": "function"
    }
  ],
  "bytecode": "0x6080604052600060035560006007556000600a5534801561001f57600080fd5b50d3801561002c57600080fd5b50d2801561003957600080fd5b50600080546001600160a01b03191633908117825580825260026020526040909120805460ff191660011790556001600160a01b03167f132a9997e52e2c9a263663f4e0d70844d7e683776839188028d514deea1fb13e60016040516100a3911515815260200190565b60405180910390a2612a13806100ba6000396000f3fe608060405234801561001057600080fd5b50d3801561001d57600080fd5b50d2801561002a57600080fd5b506004361061015c5760003560e01c8063834f6c73116100d2578063a0441f2911610096578063a0441f29146102e6578063a4230bd5146102f9578063d95832981461030c578063db8ce08c1461031f578063e2e3353014610348578063f5c0753c1461036857600080fd5b8063834f6c7314610278578063863efa181461028057806389944f5c146102955780638da5cb5b146102a857806399612563146102d357600080fd5b80632001d551116101245780632001d55114610204578063246b4eaa146102175780632f19d50b14610237578063536fa9f71461024a578063582606441461025d578063582e04881461027057600080fd5b80630252c9a2146101615780630f4c325f146101785780630f53a4701461019b578063120571b6146101bb5780631e815175146101db575b600080fd5b6007545b6040519081526020015b60405180910390f35b61018b6101863660046124b1565b61037b565b604051901515815260200161016f565b6101ae6101a936600461219c565b61064c565b60405161016f9190612840565b6101ce6101c9366004612498565b6108c5565b60405161016f919061277b565b6101656101e936600461219c565b6001600160a01b03166000908152600b602052604090205490565b61018b610212366004612305565b610b52565b61022a610225366004612475565b610e80565b60405161016f919061265d565b61018b610245366004612260565b610f74565b61018b6102583660046124b1565b611088565b61018b61026b366004612305565b6113cf565b600a54610165565b600354610165565b61029361028e3660046121f1565b6117b1565b005b61018b6102a336600461240d565b6118a0565b6000546102bb906001600160a01b031681565b6040516001600160a01b03909116815260200161016f565b6102936102e136600461219c565b611ad2565b6102936102f436600461219c565b611b77565b6102936103073660046121be565b611c79565b61018b61031a3660046122ae565b611d3b565b6102bb61032d366004612498565b6000908152600960205260409020546001600160a01b031690565b61035b61035636600461219c565b611e6b565b60405161016f9190612619565b6001546102bb906001600160a01b031681565b6001600160a01b03871660009081526004602052604081206001018054899189918491906103a890612963565b80601f01602080910402602001604051908101604052809291908181526020018280546103d490612963565b80156104215780601f106103f657610100808354040283529160200191610421565b820191906000526020600020905b81548152906001019060200180831161040457829003601f168201915b505050505090508160405160200161043991906125fd565b604051602081830303815290604052805190602001208160405160200161046091906125fd565b604051602081830303815290604052805190602001201461049c5760405162461bcd60e51b815260040161049390612739565b60405180910390fd5b6001600160a01b038b166000908152600860205260409020548b9060ff166104d65760405162461bcd60e51b815260040161049390612670565b60006040518061010001604052808f6001600160501b031681526020018e6001600160a01b031681526020018c6001600160a01b031681526020018b81526020018a815260200189815260200188815260200142815250905080600c6000600a54815260200190815260200160002060008201518160000160006101000a8154816001600160501b0302191690836001600160501b03160217905550602082015181600001600a6101000a8154816001600160a01b0302191690836001600160a01b0316021790555060408201518160010160006101000a8154816001600160a01b0302191690836001600160a01b031602179055506060820151816002015560808201518160030190805190602001906105f2929190611ed7565b5060a0820151805161060e916004840191602090910190611ed7565b5060c0820151805161062a916005840191602090910190611ed7565b5060e091909101516006909101555060019d9c50505050505050505050505050565b610654611f5b565b6001600160a01b03808316600090815260086020908152604091829020825160e081018452815460ff811615158252610100900490941691840191909152815180830183526001820180549293850192829082906106b190612963565b80601f01602080910402602001604051908101604052809291908181526020018280546106dd90612963565b801561072a5780601f106106ff5761010080835404028352916020019161072a565b820191906000526020600020905b81548152906001019060200180831161070d57829003601f168201915b5050505050815260200160018201805461074390612963565b80601f016020809104026020016040519081016040528092919081815260200182805461076f90612963565b80156107bc5780601f10610791576101008083540402835291602001916107bc565b820191906000526020600020905b81548152906001019060200180831161079f57829003601f168201915b5050509190925250505081526040805160a081018252600384015481526004840154602082810191909152600585015464ffffffffff1682840152600685015460608301526007850154608083015283015260088301805491909201919061082390612963565b80601f016020809104026020016040519081016040528092919081815260200182805461084f90612963565b801561089c5780601f106108715761010080835404028352916020019161089c565b820191906000526020600020905b81548152906001019060200180831161087f57829003601f168201915b505050918352505060098201546020820152600a9091015460ff16151560409091015292915050565b61092860405180610100016040528060006001600160501b0316815260200160006001600160a01b0316815260200160006001600160a01b0316815260200160008152602001606081526020016060815260200160608152602001600081525090565b6000828152600c602090815260409182902082516101008101845281546001600160501b03811682526001600160a01b03600160501b9091048116938201939093526001820154909216928201929092526002820154606082015260038201805491929160808401919061099b90612963565b80601f01602080910402602001604051908101604052809291908181526020018280546109c790612963565b8015610a145780601f106109e957610100808354040283529160200191610a14565b820191906000526020600020905b8154815290600101906020018083116109f757829003601f168201915b50505050508152602001600482018054610a2d90612963565b80601f0160208091040260200160405190810160405280929190818152602001828054610a5990612963565b8015610aa65780601f10610a7b57610100808354040283529160200191610aa6565b820191906000526020600020905b815481529060010190602001808311610a8957829003601f168201915b50505050508152602001600582018054610abf90612963565b80601f0160208091040260200160405190810160405280929190818152602001828054610aeb90612963565b8015610b385780601f10610b0d57610100808354040283529160200191610b38565b820191906000526020600020905b815481529060010190602001808311610b1b57829003601f168201915b505050505081526020016006820154815250509050919050565b6001600160a01b038616600090815260046020526040812054879060ff16610b8c5760405162461bcd60e51b8152600401610493906126ef565b6001600160a01b038816600090815260046020526040812060010180548a928a929091610bb890612963565b80601f0160208091040260200160405190810160405280929190818152602001828054610be490612963565b8015610c315780601f10610c0657610100808354040283529160200191610c31565b820191906000526020600020905b815481529060010190602001808311610c1457829003601f168201915b5050505050905081604051602001610c4991906125fd565b6040516020818303038152906040528051906020012081604051602001610c7091906125fd565b6040516020818303038152906040528051906020012014610ca35760405162461bcd60e51b815260040161049390612739565b60078054906000610cb38361299e565b919050555060006040518060e001604052806001151581526020018d6001600160a01b031681526020018b81526020018a815260200189815260200188815260200160001515815250905080600860008e6001600160a01b03166001600160a01b0316815260200190815260200160002060008201518160000160006101000a81548160ff02191690831515021790555060208201518160000160016101000a8154816001600160a01b0302191690836001600160a01b031602179055506040820151816001016000820151816000019080519060200190610d96929190611ed7565b506020828101518051610daf9260018501920190611ed7565b505050606082810151805160038401556020808201516004850155604082015160058501805464ffffffffff191664ffffffffff90921691909117905591810151600684015560809081015160078401558301518051610e159260088501920190611ed7565b5060a082015160098083019190915560c090920151600a909101805491151560ff1990921691909117905560075460009081526020919091526040902080546001600160a01b038e166001600160a01b03199091161790555060019450505050509695505050505050565b6001600160a01b038116600090815260046020526040902060020154606090831415610f51576001600160a01b03821660009081526004602052604090206001018054610ecc90612963565b80601f0160208091040260200160405190810160405280929190818152602001828054610ef890612963565b8015610f455780601f10610f1a57610100808354040283529160200191610f45565b820191906000526020600020905b815481529060010190602001808311610f2857829003601f168201915b50505050509050610f6e565b506040805180820190915260048152636e6f6e6560e01b60208201525b92915050565b6001600160a01b03821660009081526004602052604081206001018054829190610f9d90612963565b80601f0160208091040260200160405190810160405280929190818152602001828054610fc990612963565b80156110165780601f10610feb57610100808354040283529160200191611016565b820191906000526020600020905b815481529060010190602001808311610ff957829003601f168201915b505050505090508251815114611030576000915050610f6e565b8260405160200161104191906125fd565b604051602081830303815290604052805190602001208160405160200161106891906125fd565b604051602081830303815290604052805190602001201491505092915050565b6001600160a01b03871660009081526004602052604081206001018054899189918491906110b590612963565b80601f01602080910402602001604051908101604052809291908181526020018280546110e190612963565b801561112e5780601f106111035761010080835404028352916020019161112e565b820191906000526020600020905b81548152906001019060200180831161111157829003601f168201915b505050505090508160405160200161114691906125fd565b604051602081830303815290604052805190602001208160405160200161116d91906125fd565b60405160208183030381529060405280519060200120146111a05760405162461bcd60e51b815260040161049390612739565b6001600160a01b038b166000908152600860205260409020548b9060ff166111da5760405162461bcd60e51b815260040161049390612670565b60006040518061010001604052808f6001600160501b031681526020018e6001600160a01b031681526020018c6001600160a01b031681526020018b81526020018a815260200189815260200188815260200142815250905080600c6000600a54815260200190815260200160002060008201518160000160006101000a8154816001600160501b0302191690836001600160501b03160217905550602082015181600001600a6101000a8154816001600160a01b0302191690836001600160a01b0316021790555060408201518160010160006101000a8154816001600160a01b0302191690836001600160a01b031602179055506060820151816002015560808201518160030190805190602001906112f6929190611ed7565b5060a08201518051611312916004840191602090910190611ed7565b5060c0820151805161132e916005840191602090910190611ed7565b5060e091909101516006909101556001600160a01b038d166000908152600b602090815260408220600a805482546001810184559285529284209091019190915580549161137b8361299e565b91905055507f0de048fe4a0ee495f40725d38843d22f9ab4026b2b70b60e9a8255fb313fe164600a546040516113b391815260200190565b60405180910390a15060019d9c50505050505050505050505050565b6001600160a01b038616600090815260086020526040812054879060ff161561143a5760405162461bcd60e51b815260206004820181905260248201527f54686973206164647265737320616c7265616479206861732070726f66696c656044820152606401610493565b6001600160a01b038816600090815260046020526040902054889060ff166114745760405162461bcd60e51b8152600401610493906126ef565b6001600160a01b038916600090815260046020526040812060010180548b928b9290916114a090612963565b80601f01602080910402602001604051908101604052809291908181526020018280546114cc90612963565b80156115195780601f106114ee57610100808354040283529160200191611519565b820191906000526020600020905b8154815290600101906020018083116114fc57829003601f168201915b505050505090508160405160200161153191906125fd565b604051602081830303815290604052805190602001208160405160200161155891906125fd565b604051602081830303815290604052805190602001201461158b5760405162461bcd60e51b815260040161049390612739565b6007805490600061159b8361299e565b919050555060006040518060e001604052806001151581526020018e6001600160a01b031681526020018c81526020018b81526020018a815260200189815260200160001515815250905080600860008f6001600160a01b03166001600160a01b0316815260200190815260200160002060008201518160000160006101000a81548160ff02191690831515021790555060208201518160000160016101000a8154816001600160a01b0302191690836001600160a01b03160217905550604082015181600101600082015181600001908051906020019061167e929190611ed7565b5060208281015180516116979260018501920190611ed7565b505050606082810151805160038401556020808201516004850155604082015160058501805464ffffffffff191664ffffffffff909216919091179055918101516006840155608090810151600784015583015180516116fd9260088501920190611ed7565b5060a0820151816009015560c082015181600a0160006101000a81548160ff0219169083151502179055509050508c60096000600754815260200190815260200160002060006101000a8154816001600160a01b0302191690836001600160a01b031602179055507f7f6a4ae23eebf37a14701f95de6358c88858191d27d5089d4b6a0dfff39a4a184260405161179691815260200190565b60405180910390a15060019c9b505050505050505050505050565b3360009081526002602052604090205460ff166117e05760405162461bcd60e51b8152600401610493906126b8565b60408051606081018252841515815283151560208083019182528284018581526001600160a01b0389166000908152600683529490942083518154935161ffff1990941690151561ff001916176101009315159390930292909217825592518051929384936118559260018501920190611ed7565b5050604080516001600160a01b03881681524260208201527f1c07d4a78d1fefbdfd9901852f7396e245411b0ecadec8d5ef23af6e8202078f92500160405180910390a15050505050565b6001600160a01b038416600090815260086020526040812054859060ff166118da5760405162461bcd60e51b815260040161049390612670565b6001600160a01b0386166000908152600460205260408120600101805488928892909161190690612963565b80601f016020809104026020016040519081016040528092919081815260200182805461193290612963565b801561197f5780601f106119545761010080835404028352916020019161197f565b820191906000526020600020905b81548152906001019060200180831161196257829003601f168201915b505050505090508160405160200161199791906125fd565b60405160208183030381529060405280519060200120816040516020016119be91906125fd565b60405160208183030381529060405280519060200120146119f15760405162461bcd60e51b815260040161049390612739565b6000878152600c60205260409020546001600160501b0387811691161415611ac1576000878152600c6020526040812080546001600160f01b03191681556001810180546001600160a01b03191690556002810182905590611a566003830182611fe4565b611a64600483016000611fe4565b611a72600583016000611fe4565b506000600691909101556040516001600160501b03871681527f75c16cb2049d0e4c1a90a87257ac0fbf1f5e15f36f6dbd1f0ccd7abb51908b319060200160405180910390a160019450611ac6565b600094505b50505050949350505050565b3360009081526002602052604090205460ff16611b015760405162461bcd60e51b8152600401610493906126b8565b6001600160a01b0381166000908152600660205260408120805461ffff1916815590611b306001830182611fe4565b5050604080516001600160a01b03831681524260208201527f66c485a7afebd091c76654cfbb43b156d0081a6b6107c852a5f729de1a7de47d91015b60405180910390a150565b3360009081526002602052604090205460ff16611ba65760405162461bcd60e51b8152600401610493906126b8565b6001600160a01b038116600090815260086020526040812080546001600160a81b0319168155906001820181611bdc8282611fe4565b611bea600183016000611fe4565b50506000600383018190556004830181905560058301805464ffffffffff191690556006830181905560078301819055611c28906008840190611fe4565b5060006009820155600a01805460ff19169055604080516001600160a01b03831681524260208201527f27e6d19045fa42aefaf3ca4343027288e2a2f96071fc11e4e002789284bf4ba89101611b6c565b6000546001600160a01b0316336001600160a01b031614611cdc5760405162461bcd60e51b815260206004820152601c60248201527f4f6e6c792061636365737369626c6520746f20746865206f776e6572000000006044820152606401610493565b6001600160a01b038216600081815260026020908152604091829020805460ff191685151590811790915591519182527f132a9997e52e2c9a263663f4e0d70844d7e683776839188028d514deea1fb13e910160405180910390a25050565b6040805160808101825260018082526001600160a01b038681166020808501828152858701898152606087018990526000938452600483529683208651815492516001600160a81b0319909316901515610100600160a81b0319161761010092909516919091029390931783559451805191958594611dc1939085019290910190611ed7565b506060919091015160029091015560038054906000611ddf8361299e565b9091555050600354600090815260056020908152604080832080546001600160a01b0319166001600160a01b038a811691821790925584526004835292819020548151610100909104909316835242918301919091527fdabc819b782c724318a53c0a6baaa1411b93973851179dabc091f591bbf9375e910160405180910390a1506001949350505050565b6001600160a01b0381166000908152600b6020908152604091829020805483518184028101840190945280845260609392830182828015611ecb57602002820191906000526020600020905b815481526020019060010190808311611eb7575b50505050509050919050565b828054611ee390612963565b90600052602060002090601f016020900481019282611f055760008555611f4b565b82601f10611f1e57805160ff1916838001178555611f4b565b82800160010185558215611f4b579182015b82811115611f4b578251825591602001919060010190611f30565b50611f57929150612021565b5090565b6040518060e0016040528060001515815260200160006001600160a01b03168152602001611f9c604051806040016040528060608152602001606081525090565b81526040805160a08101825260008082526020828101829052928201819052606082018190526080820152910190815260606020820181905260006040830181905291015290565b508054611ff090612963565b6000825580601f10612000575050565b601f01602090049060005260206000209081019061201e9190612021565b50565b5b80821115611f575760008155600101612022565b600081356001600160a81b038116811461204f57600080fd5b6001600160a01b031692915050565b8035801515811461206e57600080fd5b919050565b600082601f83011261208457600080fd5b813567ffffffffffffffff8082111561209f5761209f6129c7565b604051601f8301601f19908116603f011681019082821181831017156120c7576120c76129c7565b816040528381528660208588010111156120e057600080fd5b836020870160208301376000602085830101528094505050505092915050565b600060a0828403121561211257600080fd5b60405160a0810181811067ffffffffffffffff82111715612135576121356129c7565b80604052508091508235815260208301356020820152604083013564ffffffffff8116811461216357600080fd5b8060408301525060608301356060820152608083013560808201525092915050565b80356001600160501b038116811461206e57600080fd5b6000602082840312156121ae57600080fd5b6121b782612036565b9392505050565b600080604083850312156121d157600080fd5b6121da83612036565b91506121e86020840161205e565b90509250929050565b6000806000806080858703121561220757600080fd5b61221085612036565b935061221e6020860161205e565b925061222c6040860161205e565b9150606085013567ffffffffffffffff81111561224857600080fd5b61225487828801612073565b91505092959194509250565b6000806040838503121561227357600080fd5b61227c83612036565b9150602083013567ffffffffffffffff81111561229857600080fd5b6122a485828601612073565b9150509250929050565b6000806000606084860312156122c357600080fd5b6122cc84612036565b9250602084013567ffffffffffffffff8111156122e857600080fd5b6122f486828701612073565b925050604084013590509250925092565b600080600080600080610140878903121561231f57600080fd5b61232887612036565b9550602087013567ffffffffffffffff8082111561234557600080fd5b6123518a838b01612073565b9650604089013591508082111561236757600080fd5b908801906040828b03121561237b57600080fd5b61238361290a565b82358281111561239257600080fd5b61239e8c828601612073565b8252506020830135828111156123b357600080fd5b6123bf8c828601612073565b60208301525095506123d48a60608b01612100565b94506101008901359150808211156123eb57600080fd5b506123f889828a01612073565b92505061012087013590509295509295509295565b6000806000806080858703121561242357600080fd5b61242c85612036565b9350602085013567ffffffffffffffff81111561244857600080fd5b61245487828801612073565b9350506040850135915061246a60608601612185565b905092959194509250565b6000806040838503121561248857600080fd5b823591506121e860208401612036565b6000602082840312156124aa57600080fd5b5035919050565b600080600080600080600080610100898b0312156124ce57600080fd5b6124d789612185565b97506124e560208a01612036565b9650604089013567ffffffffffffffff8082111561250257600080fd5b61250e8c838d01612073565b975061251c60608c01612036565b965060808b0135955060a08b013591508082111561253957600080fd5b6125458c838d01612073565b945060c08b013591508082111561255b57600080fd5b6125678c838d01612073565b935060e08b013591508082111561257d57600080fd5b5061258a8b828c01612073565b9150509295985092959890939650565b600081518084526125b2816020860160208601612933565b601f01601f19169290920160200192915050565b60008151604084526125db604085018261259a565b9050602083015184820360208601526125f4828261259a565b95945050505050565b6000825161260f818460208701612933565b9190910192915050565b6020808252825182820181905260009190848201906040850190845b8181101561265157835183529284019291840191600101612635565b50909695505050505050565b6020815260006121b7602083018461259a565b60208082526028908201527f596f75206d7573742063726561746520612070726f66696c6520746f206d616b604082015267194818481c1bdcdd60c21b606082015260800190565b6020808252601b908201527f4f6e6c792061636365737369626c6520746f20616e2041646d696e0000000000604082015260600190565b6020808252602a908201527f506c656173652063726561746520612075736572206163636f756e743b2063726040820152696561746555736572282960b01b606082015260800190565b60208082526022908201527f416363657373206e6f74206772616e7465642c2077726f6e672070617373776f6040820152611c9960f21b606082015260800190565b602081526127956020820183516001600160501b03169052565b600060208301516127b160408401826001600160a01b03169052565b5060408301516001600160a01b0381166060840152506060830151608083015260808301516101008060a08501526127ed61012085018361259a565b915060a0850151601f19808685030160c087015261280b848361259a565b935060c08701519150808685030160e087015250612829838261259a565b92505060e085015181850152508091505092915050565b6020815281511515602082015260018060a01b0360208301511660408201526000604083015161016080606085015261287d6101808501836125c6565b915060608501516128c36080860182805182526020810151602083015264ffffffffff604082015116604083015260608101516060830152608081015160808301525050565b506080850151848303601f19016101208601526128e0838261259a565b92505060a085015161014085015260c08501516129008286018215159052565b5090949350505050565b6040805190810167ffffffffffffffff8111828210171561292d5761292d6129c7565b60405290565b60005b8381101561294e578181015183820152602001612936565b8381111561295d576000848401525b50505050565b600181811c9082168061297757607f821691505b6020821081141561299857634e487b7160e01b600052602260045260246000fd5b50919050565b60006000198214156129c057634e487b7160e01b600052601160045260246000fd5b5060010190565b634e487b7160e01b600052604160045260246000fdfea26474726f6e582212209ae5f5fbd62ca626338b7d7e3aa9b5ae51e7adb31aa38f5afc4c63e1211c5cce64736f6c63430008060033",
  "source": "//SPDX-License-Identifier: GPL-3.0\r\npragma solidity ^0.8.0;\r\n\r\nabstract contract Context {\r\n\r\n    function _msgSender() internal view virtual returns (address) {\r\n        return msg.sender;\r\n    }\r\n\r\n    function _msgData() internal view virtual returns (bytes calldata) {\r\n        return msg.data;\r\n    }\r\n\r\n    function _msgValue() internal view virtual returns (uint256 value) {\r\n        return msg.value;\r\n    }    \r\n\r\n\r\n}\r\n\r\nabstract contract Owner is Context {\r\n    address public owner;\r\n\r\n    constructor () {\r\n        owner = _msgSender();\r\n    }\r\n\r\n\r\n    /**\r\n    * Throws if called by any account other than the owner.\r\n     */\r\n\r\n    modifier onlyOwner() {\r\n        require(_msgSender() == owner,\"Only accessible to the owner\");\r\n        _;\r\n    }\r\n\r\n    /**\r\n    * check if the current caller is the contract owner.\r\n     */\r\n\r\n    function isOwner() internal view returns(bool) {\r\n        return owner == _msgSender();\r\n    }\r\n    \r\n}\r\n\r\n\r\n\r\ncontract Voyte is Owner{\r\n    \r\n    address public myOwner;\r\n\r\n    mapping(address => bool) admin;\r\n    event Admin(address indexed user, bool status);\r\n\r\n    constructor() {\r\n        admin[_msgSender()] = true;\r\n        emit Admin(_msgSender(),true);\r\n    }\r\n\r\n    modifier onlyAdmin(){\r\n        require(admin[_msgSender()],\"Only accessible to an Admin\");\r\n        _;\r\n    }\r\n\r\n    function addAdmin(address user,bool status) onlyOwner external {\r\n        admin[user] = status;\r\n        emit Admin(user,status);\r\n    }\r\n    \r\n\r\n\r\n///////////////////////////////////////////////////////////////////////////////////////////////////////\r\n//////////////////////////////// Users Users Users ////////////////////////////////////////////////////\r\n\r\n    modifier hasNoAccount(address user){\r\n        require(!users[user].exist,\"This address already has an account\");\r\n        _;\r\n    }\r\n    \r\n    modifier accessGranted(address _user, string memory password){\r\n        string memory savedPass = users[_user].password;\r\n      \r\n        require(keccak256(abi.encodePacked(savedPass)) == keccak256(abi.encodePacked(password)), \"Access not granted, wrong password\");\r\n        _;\r\n    }\r\n\r\n    struct User {\r\n        bool exist;\r\n        address user;\r\n        string password;\r\n        bytes32 resetCode;\r\n    }\r\n    \r\n    uint256 userCounter = 0;\r\n    mapping(address => User ) users;\r\n    mapping(uint256 => address ) addressIndex;\r\n    \r\n    \r\n    //TODO create modifier if address exist\r\n    // creats a user \r\n    event CreateUser (address user, uint time); \r\n    function creatUser(address userm, string memory passwordm,bytes32 passkey) public returns (bool success ){\r\n        User memory user = User(true,userm,passwordm,passkey);\r\n        users[userm] = user;\r\n        userCounter++;\r\n        \r\n        addressIndex[userCounter] =userm;\r\n        \r\n        emit CreateUser(users[userm].user,block.timestamp);\r\n        \r\n        return true;\r\n    }\r\n    \r\n    function login(address mUser, string memory passwordm ) public view returns (bool success) {\r\n        \r\n        string memory savedPass = users[mUser].password;\r\n        \r\n        if (bytes(savedPass).length != bytes(passwordm).length) {\r\n            return false;\r\n        }\r\n        \r\n        return keccak256(abi.encodePacked(savedPass)) == keccak256(abi.encodePacked(passwordm));\r\n    }\r\n    \r\n    function getPassword(bytes32 passkey,address _user) public view returns (string memory password){\r\n        if(users[_user].resetCode == passkey){\r\n            return users[_user].password;\r\n        }\r\n        return \"none\";\r\n    }\r\n    \r\n    function getUserCounter() public view returns (uint256 totalUsers) {\r\n        return userCounter;\r\n    }\r\n\r\n    \r\n\r\n///////////////////////////////////////////////////////////////////////////////////////////////////////\r\n//////////////////////////////// ADDRESS STATUS ADDRESS STATUS  ADDRESS STATUS/////////////////////////\r\n\r\n    struct AddressStatus{\r\n        bool isBanned;\r\n        bool isRectricated;\r\n        string reason;\r\n    }\r\n\r\n    mapping(address => AddressStatus) addressStatus;\r\n\r\n    /**\r\n    *   Adds an address to the list of blocked or restricted user depending on the violation\r\n    *\r\n     */\r\n    event UpdateAddressStatus(address user, uint256 timestamp);\r\n\r\n    function updateAddressStatus(address user, bool isBanned, bool isRectricated,string memory reason) onlyAdmin public {\r\n        AddressStatus memory addStatus = AddressStatus(isBanned,isRectricated,reason);\r\n        addressStatus[user] = addStatus;\r\n        emit UpdateAddressStatus(user,block.timestamp);\r\n    }\r\n\r\n    /**\r\n    *   Removes an address from the list of blocked or restricted user \r\n    *\r\n     */\r\n\r\n     event DeleteFromUpdateAddressStatus(address user, uint256 timestamp);\r\n\r\n    function deleteFromUpdateAddressStatus (address user) onlyAdmin public{\r\n        delete addressStatus[user];\r\n        emit DeleteFromUpdateAddressStatus(user, block.timestamp);\r\n    }\r\n    \r\n    \r\n\r\n///////////////////////////////////////////////////////////////////////////////////////////////////////\r\n//////////////////////////////////PROFILE PROFILE PROFILE//////////////////////////////////////////////\r\n\r\n//Profile Voyte\r\n\r\n    modifier hasNoProfile(address user){\r\n        require(!profiles[user].exists,\"This address already has profile\");\r\n        _;\r\n    }\r\n    \r\n    modifier accountCreated(address user){\r\n        require(users[user].exist,\"Please create a user account; createUser()\");\r\n        _;\r\n    }\r\n    \r\n    \r\n\r\n    struct UserName {\r\n        string firstName;\r\n        string lastName;\r\n    }\r\n    \r\n    struct Contact {\r\n        bytes32 email;\r\n        bytes32 website;\r\n        uint40 phone;\r\n        bytes32 physicalAddress;\r\n        bytes32 country;\r\n        \r\n    }\r\n\r\n    struct Profile {\r\n        bool exists;\r\n        address mAddress;\r\n        UserName userName;\r\n        Contact Contact;\r\n        string bio;\r\n        bytes32 ProfileType;\r\n        bool isVerified;\r\n\r\n    }\r\n\r\n    uint256 profileCounter = 0;\r\n    mapping (address => Profile ) profiles;\r\n    mapping (uint256 => address) profileAddress;\r\n\r\n    /**\r\n    *   Add a new profile\r\n    *\r\n     */\r\n    event CreateProfile( uint256 timestamp);\r\n\r\n    function createProfile(address _user,string memory _password, UserName memory _username, Contact memory _contact,string memory _bio, \r\n                              bytes32  _profileType) hasNoProfile(_user) accountCreated(_user) accessGranted(_user,_password)  public returns (bool success){\r\n\r\n        \r\n        profileCounter ++;\r\n        \r\n        Profile memory profile = Profile(true,_user,_username,_contact,_bio,_profileType,false);\r\n        profiles[_user] = profile;\r\n        profileAddress[profileCounter] = _user;\r\n\r\n        emit CreateProfile(block.timestamp);\r\n\r\n        return true;\r\n\r\n    }\r\n    \r\n    \r\n    //edit profile\r\n    \r\n     function editProfile(address _user,string memory _password, UserName memory _username, Contact memory _contact,string memory _bio, \r\n                              bytes32  _profileType) accountCreated(_user) accessGranted(_user,_password)  public returns (bool success){\r\n\r\n        \r\n        profileCounter ++;\r\n        \r\n        Profile memory profile = Profile(true,_user,_username,_contact,_bio,_profileType,false);\r\n        profiles[_user] = profile;\r\n        profileAddress[profileCounter] = _user;\r\n\r\n        return true;\r\n\r\n    }\r\n\r\n    function getProfile(address _user)  public view returns (Profile memory userAddress) {\r\n        return profiles[_user];\r\n    }\r\n\r\n    function getProfileAddress(uint256 _index) public view returns (address userAddress) {\r\n        return profileAddress[_index];\r\n    }\r\n    \r\n    function getProfileCounter() public view returns (uint256 totalProfiles){\r\n        return profileCounter;\r\n    }\r\n\r\n    /**\r\n    *   deletes profile\r\n    */\r\n\r\n    event DeleteProfile(address user, uint256 timestamp);\r\n\r\n    function deleteProfile(address user) public onlyAdmin (){\r\n        delete profiles[user];\r\n\r\n        emit DeleteProfile(user,block.timestamp);\r\n    }\r\n    \r\n    \r\n\r\n///////////////////////////////////////////////////////////////////////////////////////////////////////\r\n//////////////////////////////////POST POST POST POST//////////////////////////////////////////////////\r\n\r\n    modifier hasProfile(address user){\r\n        require(profiles[user].exists,\"You must create a profile to make a post\");\r\n        _;\r\n    }\r\n\r\n    struct Post {\r\n        \r\n        uint80 postId;\r\n        address mAddress;\r\n        address affliation;\r\n        uint256 minAmounts;\r\n        string caption;\r\n        string message;\r\n        string mediaUrls;\r\n        uint256 dateCreated;\r\n        \r\n        \r\n    }\r\n\r\n    uint256 postId = 0;\r\n\r\n    mapping (address => uint256 [] ) postAddressIndex;\r\n    mapping (uint256 => Post ) posts;\r\n\r\n    \r\n\r\n    /**\r\n    * Creates a post with affilliation\r\n    */\r\n\r\n    event NewPost(uint256 postId);\r\n\r\n    function addPost(uint80 _postId, address _user,string memory _password, address _affiliation, uint256 _minAmount,\r\n    string memory _caption, string memory _message, string memory _mediaUrl) accessGranted(_user, _password) hasProfile(_user) public returns (bool success){\r\n        Post memory post = Post(_postId,_user,_affiliation,_minAmount,_caption,_message,_mediaUrl,block.timestamp);\r\n\r\n        posts[postId] = post;\r\n        postAddressIndex[_user].push(postId);\r\n        postId++;\r\n        emit NewPost(postId);\r\n\r\n        return true;\r\n    }\r\n    \r\n    /**\r\n     * \r\n     * */\r\n\r\n    \r\n    function editPost(uint80 _postId, address _user,string memory _password, address _affiliation, uint256 _minAmount,\r\n    string memory _caption, string memory _message, string memory _mediaUrl) accessGranted(_user, _password) hasProfile(_user) public returns (bool success){\r\n        Post memory post = Post(_postId,_user,_affiliation,_minAmount,_caption,_message,_mediaUrl,block.timestamp);\r\n\r\n        posts[postId] = post;\r\n\r\n        return true;\r\n    }\r\n\r\n\r\n    function getUserPost(uint256 _index) public view returns (Post memory) {\r\n        return posts[_index];\r\n    }\r\n\r\n    function getPostAddressSize(address _user) public view returns (uint256 arraySize) {\r\n        return postAddressIndex[_user].length ;\r\n    }\r\n    \r\n    function getPostAddressData(address _user) public view returns (uint256[] memory data) {\r\n        return postAddressIndex[_user];\r\n    }\r\n    \r\n    function getPostCounter() public view returns (uint256 postCounter ){\r\n        return postId;\r\n    }\r\n\r\n    /**\r\n    *   Deletes a posts, only onwer \r\n    */\r\n    event DeletePost(uint256 postId);\r\n\r\n     function deletePost( address _user, string memory _password ,uint256 _postIndex,uint80 _postId) hasProfile(_user) accessGranted(_user,_password) public returns (bool success) {\r\n         \r\n        if(posts[_postIndex].postId == _postId){\r\n            delete posts[_postIndex];\r\n            emit DeletePost(_postId);\r\n            return true;\r\n        }\r\n\r\n        return false;\r\n     }\r\n\r\n\r\n\r\n}\r\n\r\n\r\n",
  "sourcePath": "C:/Users/Mercy Z/Desktop/Tron/contract/contracts/Voyte.sol",
  "compiler": {
    "name": "solc",
    "version": "0.8.6+commit.0e36fba0.mod.Emscripten.clang"
  },
  "schemaVersion": "2.0.1",
  "updatedAt": "2023-10-11T11:56:37.008Z"
}